S0150000547261666669635F4C696768742E73726563F9
S11300000C942A000C94AA000C943C000C943C0020
S11300100C943C000C943C000C943C000C943C006C
S11300200C943C000C943C000C943C000C943C005C
S11300300C943C000C943C000C943C000C943C004C
S11300400C943C000C943C000C943C000C943C003C
S11300500C943C0011241FBECFE5D8E0DEBFCDBF19
S113006020E0A0E6B0E001C01D92A136B207E1F79E
S11300700E9475010C942C030C94000063E081E44D
S11300800E94430164E081E40E94430164E082E44D
S11300900E94430160E083E40E94430164E083E43E
S11300A00E94430167E083E40E94430162E084E428
S11300B00E943F010E9414030E940D030E94090341
S11300C0089563E081E40E94470167E083E40E94AD
S11300D047018CE49CE40E9417030E942A0363E016
S11300E081E40E944B0167E083E40E944B0124E019
S11300F043E464E081E40E944F0164E081E40E94EF
S11301004B0164E083E40E944B0164E082E40E94BA
S1130110470160E083E40E9447018CE49CE40E9470
S113012017030E942A0364E082E40E944B0160E00A
S113013083E40E944B0124E043E464E081E40E94F0
S11301404F0164E081E40E944B0164E083E40E9477
S11301504B0108951F920F920FB60F9211242F9303
S11301603F934F935F936F937F938F939F93AF933B
S1130170BF93EF93FF9340E650E064E082E40E9473
S1130180A50280916000813029F564E082E40E9438
S1130190470160E083E40E9447018CE49CE40E94F0
S11301A017030E942A0364E082E40E944B0160E08A
S11301B083E40E944B0124E043E464E081E40E9470
S11301C04F0164E081E40E944B0164E083E40E94F7
S11301D04B0142C063E081E40E944B0164E081E48E
S11301E00E944B0164E083E40E944B0167E083E4D6
S11301F00E944B0124E043E464E081E40E944F0147
S113020064E081E40E944B0164E083E40E944B01BA
S113021064E082E40E94470160E083E40E944701B5
S11302208CE49CE40E9417030E942A0364E082E4A5
S11302300E944B0160E083E40E944B0124E043E40C
S113024064E081E40E944F0164E081E40E944B0178
S113025064E083E40E944B010E946100FF91EF91EE
S1130260BF91AF919F918F917F916F915F914F91CA
S11302703F912F910F900FBE0F901F90189540E063
S11302800E947A01089541E00E947A01089541E0B4
S11302900E94F401089540E00E94F4010895EF9251
S11302A0FF920F931F93CF93DF93E82EF62E042F24
S11302B0122FC0E0D0E00FC06F2D8E2D0E946E0271
S11302C0612F802F0E946E0283E49FE00E94170337
S11302D00E942A032196C530D10570F3DF91CF9196
S11302E01F910F91FF90EF9008950E943E000E948D
S11302F06100FDCF823431F118F4813439F008956E
S11303008334E1F1843409F454C0089541110CC0DC
S11303102AB381E090E002C0880F991F6A95E2F742
S1130320809582238ABB0895413009F05CC02AB3CA
S113033081E090E002C0880F991F6A95E2F7822B52
S11303408ABB089541110CC027B381E090E002C03C
S1130350880F991F6A95E2F78095822387BB0895D9
S1130360413009F040C027B381E090E002C0880F1B
S1130370991F6A95E2F7822B87BB089541110CC03F
S113038024B381E090E002C0880F991F6A95E2F7D8
S11303908095822384BB0895413029F524B381E0FC
S11303A090E002C0880F991F6A95E2F7822B84BB04
S11303B0089541110CC021B381E090E002C0880F80
S11303C0991F6A95E2F78095822381BB0895413095
S11303D051F421B381E090E002C0880F991F6A951F
S11303E0E2F7822B81BB0895823431F118F4813411
S11303F039F008958334E1F1843409F454C0089544
S113040041110CC02BB381E090E002C0880F991F0A
S11304106A95E2F7809582238BBB0895413009F0F9
S11304205CC02BB381E090E002C0880F991F6A95ED
S1130430E2F7822B8BBB089541110CC028B381E0F5
S113044090E002C0880F991F6A95E2F78095822395
S113045088BB0895413009F040C028B381E090E0A2
S113046002C0880F991F6A95E2F7822B88BB089512
S113047041110CC025B381E090E002C0880F991FA0
S11304806A95E2F78095822385BB0895413029F56A
S113049025B381E090E002C0880F991F6A95E2F7C6
S11304A0822B85BB089541110CC022B381E090E0FA
S11304B002C0880F991F6A95E2F78095822382BB58
S11304C00895413051F422B381E090E002C0880FD6
S11304D0991F6A95E2F7822B82BB08958234A1F0BA
S11304E018F4813431F008958334C9F0843411F15F
S11304F008952BB381E090E002C0880F991F6A959C
S1130500E2F782278BBB089528B381E090E002C014
S1130510880F991F6A95E2F7822788BB089525B34F
S113052081E090E002C0880F991F6A95E2F7822764
S113053085BB089522B381E090E002C0880F991F23
S11305406A95E2F7822782BB0895823401F118F498
S1130550813439F00895833481F1843409F443C03B
S1130560089579B381E090E09C01062E02C0220F29
S1130570331F0A94E2F7872F90E08223932302C06B
S1130580959587956A95E2F7FA018083089576B385
S113059081E090E09C01062E02C0220F331F0A94D2
S11305A0E2F7872F90E08223932302C095958795E5
S11305B06A95E2F7FA018083089573B381E090E0CD
S11305C09C01062E02C0220F331F0A94E2F7872FE4
S11305D090E08223932302C0959587956A95E2F76C
S11305E0FA018083089570B381E090E09C01062EA7
S11305F002C0220F331F0A94E2F7872F90E0822370
S1130600932302C0959587956A95E2F7FA01808352
S113061008958FB780688FBF089585B7836085BFBD
S11306208BB780648BBF089513BE12BE0895AC01CE
S113063083B7816083BF20E030E008C008B600FEC5
S1130640FDCF98B7916098BF2F5F3F4F24173507B0
S10F0650A8F3089513BE0895F894FFCF9A
S9030000FC
