S0150000547261666669635F4C696768742E73726563F9
S11300000C942A000C946D000C943C000C943C005D
S11300100C943C000C943C000C943C000C943C006C
S11300200C943C000C943C000C943C000C943C005C
S11300300C943C000C943C000C943C000C943C004C
S11300400C943C000C943C000C943C000C943C003C
S11300500C943C0011241FBECFE5D8E0DEBFCDBF19
S113006020E0A0E6B0E001C01D92A036B207E1F79F
S11300700E944E000C94BE010C94000040E00E94CB
S11300808600089541E00E948600089541E00E94A0
S11300901301089540E00E941301089560E083E491
S11300A00E94420061E083E40E9442000E94A20197
S11300B00E949E0162E084E40E943E0060E083E4CA
S11300C00E94460088E893E10E94A9010E94BC01B5
S11300D060E083E40E944A00F1CF1F920F920FB6B2
S11300E00F92112460E083E40E944A0061E083E4FB
S11300F00E94460088E893E10E94A9010E94BC0185
S113010061E083E40E944A000E944E00823449F177
S113011018F4813441F07DC0833409F440C0843440
S113012009F45AC076C041110DC02AB381E090E0B1
S113013002C0880F991F6A95E2F7809582238ABBD3
S113014080E00895413009F066C02AB381E090E070
S113015002C0880F991F6A95E2F7822B8ABB80E060
S1130160089541110DC027B381E090E002C0880FCB
S1130170991F6A95E2F78095822387BB80E00895F2
S1130180413009F04AC027B381E090E002C0880FF3
S1130190991F6A95E2F7822B87BB80E0089541118D
S11301A00DC024B381E090E002C0880F991F6A95C6
S11301B0E2F78095822384BB80E00895413079F58D
S11301C024B381E090E002C0880F991F6A95E2F79A
S11301D0822B84BB80E0089541110DC021B381E0DE
S11301E090E002C0880F991F6A95E2F780958223F8
S11301F081BB80E008954130A1F421B381E090E017
S113020002C0880F991F6A95E2F7822B81BB80E0B8
S1130210089581E0089581E0089581E0089581E0E2
S1130220089581E00895823449F118F4813441F04D
S11302307BC0833409F440C0843409F45AC074C0C8
S113024041110DC02BB381E090E002C0880F991FCB
S11302506A95E2F7809582238BBB80E00895413054
S113026009F064C02BB381E090E002C0880F991FAD
S11302706A95E2F7822B8BBB80E0089541110DC093
S113028028B381E090E002C0880F991F6A95E2F7D5
S11302908095822388BB80E00895413009F048C0EE
S11302A028B381E090E002C0880F991F6A95E2F7B5
S11302B0822B88BB80E0089541110DC025B381E0F5
S11302C090E002C0880F991F6A95E2F78095822317
S11302D085BB80E00895413069F525B381E090E065
S11302E002C0880F991F6A95E2F7822B85BB80E0D4
S11302F0089541110CC022B381E090E002C0880F40
S1130300991F6A95E2F78095822382BB0CC0413025
S113031099F422B381E090E002C0880F991F6A9596
S1130320E2F7822B82BB089583E0089583E0089569
S113033083E0089583E0089583E008958FB780688B
S11303408FBF089585B7836085BF8BB780648BBFEB
S11303500895AC0183B7816083BF20E030E008C01A
S113036008B600FEFDCF98B7916098BF2F5F3F4F4E
S113037024173507A8F3089513BE0895F894FFCF02
S9030000FC
